:1000000026C033C032C031C030C02DC12EC02DC07B
:100010002CC02BC02AC029C028C027C026C0000081
:10002000000037000000000038000000000036002B
:10003000020202020202020202020102040810206D
:100040002004100801020000040000000000112438
:100050001FBECFEDCDBF20E0A0E6B0E001C01D92F5
:10006000AA36B207E1F749D1AAC1CACF823089F0D6
:1000700018F4813051F00895833019F0843009F07C
:1000800008958CB58F7D8CBD08958AB58F778ABD14
:1000900008958AB58F7DFBCFCF93DF93E4E4F0E042
:1000A0008491EAE3F0E0D491E0E3F0E0C491CC2362
:1000B00099F08111DBDFEC2FF0E0EE0FFF1FE65D22
:1000C000FF4FA591B491EC91ED2381E090E009F40C
:1000D00080E0DF91CF91089580E090E0FACF1F9308
:1000E000CF93DF93282F30E0F901EC5BFF4F849131
:1000F000F901E65CFF4FD491F901E05DFF4FC49137
:10010000CC23A1F0162F8111B1DFEC2FF0E0EE0F20
:10011000FF1FEC5DFF4FA591B4918FB7F894EC9160
:10012000111108C0D095DE23DC938FBFDF91CF91F2
:100130001F910895DE2BF8CFCF93DF9390E0FC0161
:10014000E65CFF4F2491805D9F4FFC0184918823E2
:10015000D1F090E0880F991FFC01E25EFF4FA5915E
:10016000B491FC01EC5DFF4FC591D491623071F404
:100170009FB7F8943C91822F809583238C93E881DC
:100180002E2B28839FBFDF91CF9108958FB7F894CE
:10019000EC912E2B2C938FBFF6CF3FB7F894809124
:1001A000610090916200A0916300B091640022B759
:1001B00008B601FE05C02F3F19F00196A11DB11D23
:1001C0003FBFBA2FA92F982F8827BC01CD01620FFE
:1001D000711D811D911D46E0660F771F881F991FB5
:1001E0004A95D1F708958F929F92AF92BF92CF9286
:1001F000DF92EF92FF92D1DF4B015C0182E3C82EC8
:10020000D12CE12CF12CC9DF681979098A099B09E5
:10021000683E734081059105B0F321E0C21AD10810
:10022000E108F10888EE880E83E0981EA11CB11C3D
:10023000C114D104E104F10431F7FF90EF90DF9095
:10024000CF90BF90AF909F908F900895CF93C09123
:1002500069006C2F617081E042DFC1FB662760F9A5
:1002600082E0CF913CCF1F920F920FB60F921124D4
:100270002F933F938F939F93AF93BF93809165008C
:1002800090916600A0916700B09168003091600085
:1002900020E3230F2D3758F54096A11DB11D209363
:1002A00060008093650090936600A0936700B09310
:1002B00068008091610090916200A0916300B0910C
:1002C00064000196A11DB11D8093610090936200AE
:1002D000A0936300B0936400BF91AF919F918F9101
:1002E0003F912F910F900FBE0F901F90189523EB09
:1002F000230F4196A11DB11DD2CF78948AB582609B
:100300008ABD8AB581608ABD83B7826083BF83B7A7
:10031000816083BF89B7826089BF80B7826080BFF8
:100320003298319A309A379A8CB580648CBD61E0EE
:1003300081E002DF61E082E0FFDE88DF62E080E0F2
:10034000FBDEAADE892BE9F34EDFC0E0D0E0A4DEBD
:10035000892B89F548DFA0DE892B69F58FB7F894E2
:10036000C0906500D0906600E0906700F090680053
:100370008FBF92DE892BF1F42FB7F894809165003E
:1003800090916600A0916700B09168002FBF8C1912
:100390009D09AE09BF0988359240A105B10548F312
:1003A000809169008F5F8370809369004FDF74DEF6
:1003B000892BE9F318DF209751F222DEC8CFF89499
:0203C000FFCF6D
:00000001FF
